:100000000C9446000C9465000C9465000C946500FB
:100010000C9465000C9465000C9465000C946500CC
:100020000C9465000C9465000C9465000C946500BC
:100030000C9465000C94A3000C9465000C9465006E
:100040000C9465000C9465000C9465000C9465009C
:100050000C9465000C9465000C9465000C9465008C
:100060000C9465000C9465000C9465000C9465007C
:100070000C9465000C9465000C9465000C9465006C
:100080000C9465000C9465000C94650011241FBE4F
:10009000CFEFD0E4DEBFCDBF11E0A0E0B1E0E6E9F4
:1000A000F3E000E00BBF02C007900D92A231B10750
:1000B000D9F721E0A2E1B1E001C01D92AD31B20754
:1000C000E1F70E947B010C94C9010C940000CF93CE
:1000D000C82F8A3019F48DE00E9467008091C0001B
:1000E00085FFFCCFC093C60080E090E0CF910895DB
:1000F0008BE0809381008DE790E09093890080935E
:10010000880082E080936F00109285001092840036
:100110008091000190910101A0910201B091030131
:100120008093140190931501A0931601B0931701C9
:100130008FB780688FBF089510928100089581E085
:100140008093180108951F920F920FB60F921124F9
:100150000BB60F922F933F934F935F936F937F93C1
:100160008F939F93AF93BF93EF93FF93809114016D
:1001700090911501A0911601B09117010197A10965
:10018000B1098093140190931501A0931601B093C7
:100190001701892B8A2B8B2B91F40E949F00809151
:1001A000000190910101A0910201B091030180939F
:1001B000140190931501A0931601B0931701FF91BC
:1001C000EF91BF91AF919F918F917F916F915F91CF
:1001D0004F913F912F910F900BBE0F900FBE0F903C
:1001E0001F901895609300017093010180930201A4
:1001F000909303016093140170931501809316018D
:1002000090931701089580911B0190911C018130FA
:10021000910571F030F08230910589F00397B1F0CB
:100220001BC081E090E090931C0180931B0114C0DF
:1002300082E090E090931C0180931B010DC083E04D
:1002400090E090931C0180931B0106C081E090E038
:1002500090931C0180931B0180911B0190911C01C4
:100260008230910549F08330910551F0019759F49E
:1002700081E080931201089582E080931201089535
:1002800084E08093120108958091190190911A01E0
:100290008130910559F018F0029779F014C081E08F
:1002A00090E090931A01809319010DC082E090E0D4
:1002B00090931A018093190106C081E090E0909319
:1002C0001A01809319018091190190911A018130CE
:1002D000910519F0029729F0089588E080931301A1
:1002E00008951092130108959091130180911201C5
:1002F000892B85B908958FEF84B915B861E070E056
:1003000080E090E00E94F2000E94780010921C01B0
:1003100010921B0110921A01109219010F2EFCE28B
:100320008F2E99249394A12CB12CF02D0F2EF8EE42
:10033000CF2EF3E0DF2EE12CF12CF02D88EEC81645
:1003400083E0D806E104F10428F00E944401C12CA6
:10035000D12C76018CE2881681E09806A104B104C4
:1003600028F00E940301812C912C54010E947401F9
:10037000809118018823E1F3109218018FEFC81AB9
:10038000D80AE80AF80A8FEF881A980AA80AB80A61
:06039000D5CFF894FFCF69
:1003960001000000000000020000000067000000ED
:0203A600000055
:00000001FF
