:100000000C9446000C9465000C9465000C946500FB
:100010000C9465000C9465000C9465000C946500CC
:100020000C9465000C9465000C9465000C946500BC
:100030000C9465000C94A3000C9465000C9465006E
:100040000C9465000C9465000C9465000C9465009C
:100050000C9465000C9465000C9465000C9465008C
:100060000C9465000C9465000C9465000C9465007C
:100070000C9465000C9465000C9465000C9465006C
:100080000C9465000C9465000C94650011241FBE4F
:10009000CFEFD0E4DEBFCDBF11E0A0E0B1E0E2E9F8
:1000A000F5E000E00BBF02C007900D92A431B1074C
:1000B000D9F721E0A4E1B1E001C01D92A432B2075A
:1000C000E1F70E9454020C94C7020C940000CF93F5
:1000D000C82F8A3019F48DE00E9467008091C0001B
:1000E00085FFFCCFC093C60080E090E0CF910895DB
:1000F0008BE0809381008DE790E09093890080935E
:10010000880082E080936F00109285001092840036
:100110008091010190910201A0910301B09104012D
:100120008093170190931801A0931901B0931A01BD
:100130008FB780688FBF089510928100089581E085
:1001400080931B0108951F920F920FB60F921124F6
:100150000BB60F922F933F934F935F936F937F93C1
:100160008F939F93AF93BF93EF93FF93809117016A
:1001700090911801A0911901B0911A010197A1095C
:10018000B1098093170190931801A0931901B093BE
:100190001A01892B8A2B8B2B91F40E949F0080914E
:1001A000010190910201A0910301B091040180939B
:1001B000170190931801A0931901B0931A01FF91B0
:1001C000EF91BF91AF919F918F917F916F915F91CF
:1001D0004F913F912F910F900BBE0F900FBE0F903C
:1001E0001F901895609301017093020180930301A1
:1001F0009093040160931701709318018093190183
:1002000090931A01089580912001909121018130ED
:10021000910571F030F08230910589F00397B1F0CB
:100220001BC081E090E0909321018093200114C0D5
:1002300082E090E090932101809320010DC083E043
:1002400090E0909321018093200106C081E090E02E
:1002500090932101809320018091200190912101B0
:100260008230910549F08330910551F0019759F49E
:1002700081E080931501089582E08093150108952F
:1002800084E080931501089580911E0190911F01D3
:100290008130910559F018F0029779F014C081E08F
:1002A00090E090931F0180931E010DC082E090E0CA
:1002B00090931F0180931E0106C081E090E090930F
:1002C0001F0180931E0180911E0190911F018130BA
:1002D000910519F0029729F0089588E0809316019E
:1002E00008951092160108959091160180911501BC
:1002F000892B90911401892B85B9089580B180953F
:10030000847020911C0130911D0121303105F9F0DC
:1003100038F02230310559F023303105F9F02DC085
:1003200082E090E090931D0180931C0126C08430F0
:1003300039F481E090E090931D0180931C011DC071
:1003400082E090E090931D0180931C0116C083E031
:1003500090E090931D0180931C010FC0843039F40C
:1003600081E090E090931D0180931C0106C082E023
:1003700090E090931D0180931C0180911C0190914D
:100380001D018130910519F0039729F0089580E14E
:1003900080931401089510921401089580B1982F4C
:1003A000917080B18095827020912201309123015B
:1003B0002230310509F448C038F42115310569F0BF
:1003C0002130310551F156C02430310569F160F01A
:1003D0002530310509F43FC04DC083E090E0909393
:1003E00023018093220146C0911107C081E090E073
:1003F00090932301809322013DC0882339F082E04D
:1004000090E0909323018093220134C083E090E038
:1004100090932301809322012DC084E090E090937B
:1004200023018093220126C0911107C084E090E04F
:1004300090932301809322011DC083E090E090936C
:1004400023018093220116C085E090E09093230160
:10045000809322010FC0882339F085E090E09093CB
:1004600023018093220106C083E090E09093230152
:100470008093220180912201909123018130910586
:1004800019F0029749F0089580910001883058F4DE
:100490008F5F80930001089580910001823018F0F1
:1004A00081508093000108958FEF84B915B811B879
:1004B00082B961E070E080E090E00E94F2000E946A
:1004C0007800109221011092200110921F011092C9
:1004D0001E0110921D0110921C0110922301109216
:1004E0002201412C512C3201689441F80F2EFCE27C
:1004F0008F2E99249394A12CB12CF02D0F2EF8EE71
:10050000CF2EF3E0DF2EE12CF12CF02D88EEC81673
:1005100083E0D806E104F10428F00E944401C12CD4
:10052000D12C76018CE2881681E09806A104B104F2
:1005300028F00E940301812C912C5401809100012C
:1005400090E0A0E0B0E0481659066A067B0628F065
:100550000E947E01412C512C32010E9474010E94A4
:10056000CE0180911B018823E1F310921B018FEFD4
:10057000C81AD80AE80AF80A8FEF881A980AA80A4F
:10058000B80A8FEF481A580A680A780ABFCFF89459
:02059000FFCF9B
:1005920002010000000000000200000000670000ED
:0405A2000000000055
:00000001FF
